:100000004BC31895189518951895189518950BC009
:100010001895189518951895189518951895189578
:10002000189518951895ECCFA0E5B3EC119709F445
:1000300033C35F9BFBCF5F9AA3942CB1022F27D2CF
:100040000895A0E1B7E2119709F426C35D9BFBCFA9
:100050002CB9022F1CD20895A0E5B3EC119709F436
:100060001BC35E9BFBCF5E9A08950FEF0093B20017
:100070000093B3005F9BFECF2CB1022F08D2EFE3B9
:10008000F3E0E20F10E0F11FEC3413E0F10768F742
:10009000EE0FFF1F85919591E82FF92F09952EF707
:1000A0000895C2DF273008F026E020936100E6E7DC
:1000B000F3E0E20F10E0F11F049100936000B4DF61
:1000C00020936200B1DF20936300AEDF20936400D1
:1000D000C7D18E9A0FEF0093B2000093B30020E0D7
:1000E000B0DF21E0AEDFC9D164D1EFEBF1E01091D8
:1000F0006100E10F10E0F11FEE0FFF1F059109B93C
:10010000059102B90895ACD10FEF0093B2000093AE
:10011000B30021E096DF2091650093DFAED1089512
:1001200034E0CAEAD0E080DF29933A95E1F798D12C
:100130008AD10FEF0093B2000093B30022E081DF79
:1001400034E0CEEAD0E029917CDF3A95E1F795D111
:10015000089586D1AAEAB0E00CEA0D9300E80D9369
:1001600000E00D930D936FD108E21FD122D10895C5
:10017000EED04091620050E057DF2093AD00AAEA34
:10018000B0E000E40D9300E00D935D935CD14CDF93
:100190002093AD00AAEAB0E008E40D9300E00D93CF
:1001A0005D9351D153954A9539F75AD1AAEAB0E0F7
:1001B0000DE40D9300E00D93009168000D9300E0B5
:1001C0000D9341D1AAEAB0E00CE40D9300916700D1
:1001D0000D93009166000D9300E00D9334D10091D2
:1001E0006400013019F00AE0E0D012C044E1D6D03A
:1001F000AAEAB0E000EF0D9300E00D930FEF0D932E
:100200000D9321D10091B10001FF02C04A9579F709
:1002100001D008950FEF0093B2000093B300AAEA53
:10022000B0E00DE40D9300E00D93009168000D9394
:1002300000E00D9308D14091620050916600AAEA57
:10024000B0E000E20D93009167000D935D930FEF16
:100250000D93F9D02091B100F4DE08E20093AA00DA
:10026000F2D02091B100EDDE53954A9541F73395D8
:1002700004D10895D9DE20936600D6DE209367006E
:10028000D3DE2093A9000895F5DFEAD001D00895C8
:100290000FEF0093B2000093B3004091A90000EA71
:1002A0000093AA00009167000093AB000FEF00934A
:1002B000AD00509166005093AC00C5D02091B100C4
:1002C000C0DE53954A95B9F7D8D00895D3DFE9E653
:1002D000F0E04091A900A8DE21934A95E1F7C0D053
:1002E00000EC0093AA00009167000093AB000FEFB1
:1002F0000093AD00E9E6F0E0509166004091A9005E
:100300005093AC0001910093AD009DD00AE04DD018
:1003100053954A95A9F7BCDF0895A2D037D00FEFC7
:100320000093B2000093B30025E08BDEA6D0B4C1E9
:1003300097D06AD0C098B89A31D0B8980FEF009390
:10034000B2000093B30028E07CDE97D00895C6E6A3
:10035000D0E043E069DE29934A95E1F70895F7DF9D
:1003600063DE209362007CD00FEF0093B200009315
:10037000B30050DF089501060B193670E00010003D
:10038000220033006700CF00A001400307B3007EC6
:1003900007BB08B3007E08BB8E980895AEE7BCE0AB
:1003A0000000A150B040E1F70895F8DF0A95E9F7A1
:1003B000089508B3007E08BB07B3076007BBEEDFF4
:1003C000C09AECDFC09808E2F0DF40E201E0009361
:1003D00065000CEA0093AA0003E50093AB0033D05C
:1003E0000091B000033531F04A9529F4CFDF00E0E9
:1003F000009365000895122C1A94F1F7C29A122CFA
:100400001A94F1F7C298E5CFC098B89AC7DFB898A8
:10041000089528E010E007FC02C0C19802C0C19A0C
:100420000000122C1A94F1F7C29AB39902C0889472
:1004300002C008940000001C122C1A94F1F7C29814
:100440002A9549F7089520906000AAEAB0E0CEEA24
:10045000D0E034E00D90DDDF09923A95D9F70895A8
:10046000E091B200F091B300DFDDC22FDDDDD22FCD
:10047000EC17FD0709F010C10895C091B200D091AA
:10048000B3002C2FDEDD2D2FDCDDE6DD0895A091FD
:10049000B200B091B3000A27102F1295107F0127E8
:1004A000102F16951695169516951695AB2FB02FFD
:1004B000B127102F110F110F110FA12702950F70E7
:1004C000A027A093B200B093B3000895C9DF0FEF47
:1004D0000093B2000093B3002AE0B3DDCEDF94DFD7
:1004E000BC988E9A71D00895C4EBD0E045E09CDDB5
:1004F00029934A95E1F7B4DF8E9AC4EBD0E045E04A
:1005000044D009912AD04A95D9F75ED00895C4EB1A
:10051000D0E046E089DD29934A95E1F7A1DF8E9A84
:10052000C4EBD0E045E031D0099117D04A95D9F716
:100530000091B800013051F0033041F0003021F05B
:100540002DDF0091B90009D08E9808958091B600F2
:100550009091B7008CD08E980895BC9AC49A0000F0
:1005600000000000000011D018E0069518F000000F
:10057000C49A03C0C4980000889407D01A95A9F7BC
:100580000000C49802D0BC980895A22DB32D1197F5
:10059000F1F7000000000895BC98B49BFECF000066
:1005A000000000000000A42DB52D1197F1F718E010
:1005B0000000B49B02C0889402C008940000079514
:1005C000E4DF1A95A9F708957894A0E0B0E0C0E0C0
:1005D000D0E0B49BFECFB499FECF1196B49BFDCF73
:1005E0002196B499FDCF8A2F9B2F8C0F9D1FAC1B9A
:1005F000BD0BAC1BBD0BAC1BBD0B38F400E00A1BE4
:10060000A02F00E00B0BB02F07C00000000000007F
:100610000000000000000000EA2FFB2FA6E0B0E081
:10062000C0E0D0E0E43010E0F107B8F69695879589
:100630009695879596958795A82FB92FB695A795E6
:10064000B695A7958A0F9B1F482E592E0597282EE1
:10065000392E842D952D56944794840D951D02971F
:10066000482E592E88E090E002D08E980895789414
:1006700093DF0CB981509040D9F7F8940895510058
:1006800083009000A900B8008D01AF0144019801DA
:1006900066016602870274020FED0DBF00E002B929
:1006A00000E109B906E003B902E40BB908E90AB9A7
:1006B00000000FEF0093B2000093B300AA245F9BE9
:1006C000FECFA3942CB1022FE2DEEFE3F3E0E20FC2
:1006D00010E0F11FEC3413E0F107F0F6EE0FFF1F0E
:0C06E00085919591E82FF92F0995E3CF43
:00000001FF
